:020000040800F2
:1000000000000220811C0008290400082B040008BD
:100010002D0400082F04000831040008000000002F
:100020000000000000000000000000003304000891
:1000300035040008000000003704000839040008F7
:10004000D11C0008D11C0008D11C0008D11C0008DC
:10005000D11C0008D11C0008D11C0008D11C0008CC
:10006000D11C0008D11C0008D11C0008D11C0008BC
:10007000D11C0008D11C0008D11C0008D11C0008AC
:10008000D11C0008D11C0008D11C0008D11C00089C
:10009000D11C0008D11C0008D11C0008D11C00088C
:1000A000D11C0008D11C0008D11C0008D11C00087C
:1000B000D11C0008D11C0008D11C0008D11C00086C
:1000C000D11C0008D11C0008D11C0008D11C00085C
:1000D000D11C0008D11C0008D11C0008D11C00084C
:1000E000D11C0008D11C0008D11C0008D11C00083C
:1000F000D11C0008D11C0008D11C0008D11C00082C
:10010000D11C0008D11C0008D11C0008D11C00081B
:10011000D11C0008D11C0008D11C0008D11C00080B
:10012000D11C0008D11C0008D11C0008D11C0008FB
:10013000D11C0008D11C0008D11C0008D11C0008EB
:10014000D11C0008D11C0008D11C0008D11C0008DB
:10015000D11C0008D11C0008D11C0008D11C0008CB
:10016000D11C0008D11C0008D11C0008D11C0008BB
:10017000D11C0008D11C0008D11C0008D11C0008AB
:10018000D11C0008D11C0008D11C0008D11C00089B
:10019000D11C000800000000D11C0008D11C000880
:1001A000D11C0008D11C0008D11C0008D11C00087B
:1001B000D11C0008D11C0008D11C0008D11C00086B
:1001C000D11C0008D11C0008D11C0008D11C00085B
:0801D000D11C0008D11C00083D
:1001D80010B5054C237833B9044B13B10448AFF379
:1001E80000800123237010BD0C00002000000000D7
:1001F8002C1D000808B5034B1BB103490348AFF396
:10020800008008BD00000000100000202C1D000820
:1002180010B588B0002403940494059406940794B8
:10022800174BDA6C42F02002DA64DA6C02F0200232
:100238000092009ADA6C42F00402DA64DA6C02F096
:1002480004020192019ADA6C42F00102DA64DB6C72
:1002580003F001030293029B224620214FF09040B5
:1002680001F090FC20230393012304930594069442
:1002780003A94FF0904001F09BFB08B010BD00BFF0
:100288000010024072B6FEE710B59CB00024189426
:1002980019941A941B941594169417940E940F9409
:1002A800109411941294139414943422214601A8A2
:1002B80001F00BFD2D482E4B0360632343608460DF
:1002C800C36004614461846100F016FB002841D1D9
:1002D8004FF48053189318A9244800F065FC0028AF
:1002E8003AD1224800F038FB002837D10023159373
:1002F8001693179315A91D4800F0CEFD00282FD19D
:1003080060230E9300220F92109211921292139270
:1003180014920EA9154800F09DFB18BB0023019309
:1003280002930393049305934FF4005206920793A4
:10033800089309934FF000720A920B930C930D9354
:1003480001A90A4800F0FEFD70B9084800F0A6F8B7
:100358001CB010BDFFF796FFFFF794FFFFF792FF61
:10036800FFF790FFFFF78EFFFFF78CFF28000020B4
:10037800002C014000B595B03822002106A801F0F4
:10038800A4FC0023019302930393049305934FF471
:10039800007000F041FE012306934FF48033079369
:1003A80002230D9303220E920F930C2210921193A5
:1003B8001293139306A800F047FF80B90F23019307
:1003C80003230293802303930023049305930121BD
:1003D80001A801F0F1F920B915B05DF804FBFFF7A9
:1003E80051FFFFF74FFF000010B500F0CBFEFFF7FD
:1003F800C1FFFFF70DFFFFF747FF0021074800F097
:100408008DFC09E0054B1B685C63642000F0DCFE92
:100418000134A4B2FE2CF5D90224FBE72800002001
:10042800FEE7FEE7FEE7FEE7FEE770477047704726
:1004380008B500F0B7FE08BD00B583B00B4B1A6EC7
:1004480042F001021A661A6E02F001020092009A46
:100458009A6D42F080529A659B6D03F08053019328
:10046800019B00F05FFE03B05DF804FB0010024042
:100478000268094B9A4200D0704782B003F5644382
:100488001A6E42F400621A661B6E03F4006301934D
:10049800019B02B0704700BF002C014000B587B037
:1004A80000230193029303930493059302680D4B71
:1004B8009A4202D007B05DF804FB03F56443DA6C96
:1004C80042F00402DA64DB6C03F004030093009B3F
:1004D8000123019302230293059301A9024801F025
:1004E80067FAE7E7002C01400008004830B4036AC7
:1004F80023F001030362026A4468836923F48033AA
:1005080023F073030D681D4322F002028B68134326
:10051800204A904213D002F5006290420FD002F5B3
:10052800406290420BD002F58062904207D002F5FB
:100538008062904203D002F50062904205D123F018
:100548000803CA681A4322F00403124A904213D0DF
:1005580002F5006290420FD002F5406290420BD043
:1005680002F58062904207D002F58062904203D083
:1005780002F50062904205D124F440744A6922438E
:100588008C691443446085614A684263036230BCE5
:10059800704700BF002C014030B4036A23F4807315
:1005A8000362036A4468C26922F4803222F073024B
:1005B8000D68154323F400738A6843EA02231C4A32
:1005C800904207D002F50062904203D002F5E05253
:1005D800904206D123F40063CA6843EA022323F455
:1005E8008063134A904213D002F5006290420FD004
:1005F80002F5406290420BD002F58062904207D02B
:1006080002F58062904203D002F50062904207D161
:1006180024F440524C6942EA04128C6942EA0414F8
:100628004460C5614A68C263036230BC704700BF5A
:10063800002C014030B4036A23F480530362036A38
:100648004468C26922F0807222F4E6420D6842EAE8
:10065800052223F400538D6843EA05331B4DA84255
:1006680007D005F50065A84203D005F5E055A84276
:1006780006D123F40043CD6843EA053323F48043CD
:10068800124DA84213D005F50065A8420FD005F514
:100698004065A8420BD005F58065A84207D005F54E
:1006A8008065A84203D005F50065A84207D124F467
:1006B800404C4C694CEA841C8C694CEA84144460B4
:1006C800C2614A680264036230BC7047002C014072
:1006D80030B4036A23F480330362036A4468026D0A
:1006E80022F4803222F070020D68154323F400339F
:1006F8008A6843EA0243114A904213D002F5006225
:1007080090420FD002F5406290420BD002F5806211
:10071800904207D002F58062904203D002F5006251
:10072800904204D124F480344A6944EA02244460A3
:1007380005654A688264036230BC7047002C01403A
:1007480030B4036A23F480130362036A4468026DB9
:1007580022F0807222F4E0420D6842EA052223F476
:1007680000138D6843EA0553114DA84213D005F5CF
:100778000065A8420FD005F54065A8420BD005F5E5
:100788008065A84207D005F58065A84203D005F525
:100798000065A84204D124F480244D6944EA8524E4
:1007A800446002654A68C264036230BC704700BF97
:1007B800002C014010B4036A046A24F001040462A6
:1007C800846924F0F00C4CEA021223F00A030B436C
:1007D800826103625DF8044B704710B4036A23F02A
:1007E800100303628469036A24F4704C4CEA0232F1
:1007F80023F0A00343EA0113826103625DF8044B0E
:100808007047836823F4401323F070030B4343F0CD
:1008180007038360704770470368364A904216D0D2
:10082800B0F1804F13D0A2F5943290420FD002F568
:10083800806290420BD002F58062904207D002F5A8
:100848009432904203D002F5E052904203D123F053
:1008580070034A681343274A904222D0B0F1804F70
:100868001FD0A2F5943290421BD002F580629042CC
:1008780017D002F58062904213D002F5943290426C
:100888000FD002F5406290420BD002F58062904290
:1008980007D002F58062904203D002F500629042D0
:1008A80003D123F44073CA68134323F080034A69D1
:1008B800134303608B68C3620B6883620D4B9842D5
:1008C80013D003F5006398420FD003F540639842B4
:1008D8000BD003F58063984207D003F580639842F4
:1008E80003D003F50063984201D10B690363012328
:1008F80043617047002C014060B310B5044690F87E
:100908003D3013B3022384F83D30214651F8040BDF
:10091800FFF782FF012384F8483084F83E3084F8DA
:100928003F3084F8403084F8413084F8423084F80D
:10093800433084F8443084F8453084F8463084F8ED
:10094800473084F83D30002010BD80F83C30FFF778
:100958008FFDD7E70120704760B310B5044690F8C3
:100968003D3013B3022384F83D30214651F8040B7F
:10097800FFF752FF012384F8483084F83E3084F8AA
:100988003F3084F8403084F8413084F8423084F8AD
:10099800433084F8443084F8453084F8463084F88D
:1009A800473084F83D30002010BD80F83C30FFF718
:1009B80032FFD7E70120704730B4036A23F01003F1
:1009C8000362036A4468826922F0807222F4E64274
:1009D8000D6842EA052223F020038D6843EA0513D7
:1009E8001B4DA84207D005F50065A84203D005F5C0
:1009F800E055A84206D123F08003CD6843EA0513E9
:100A080023F04003124DA84213D005F50065A84213
:100A18000FD005F54065A8420BD005F58065A842C2
:100A280007D005F58065A84203D005F50065A84202
:100A380007D124F4406C4C694CEA840C8C694CEA6C
:100A48008404446082614A688263036230BC7047F0
:100A5800002C014038B590F83C30012B00F095800F
:100A680004460D46012380F83C30142A00F28880A1
:100A7800DFE802F00B8686861F86868634868686A1
:100A8800488686865D86868671000068FFF72EFD9B
:100A98002268936943F0080393612268936923F0FD
:100AA800040393612268936929690B4393610020C9
:100AB80067E00068FFF780FF2268936943F40063EA
:100AC80093612268936923F4806393612268936930
:100AD800296943EA01239361002052E00068FFF787
:100AE8005BFD2268D36943F00803D3612268D369A8
:100AF80023F00403D3612268D36929690B43D361C6
:100B080000203EE00068FFF795FD2268D36943F4B2
:100B18000063D3612268D36923F48063D3612268B8
:100B2800D369296943EA0123D361002029E00068D9
:100B3800FFF7CEFD2268136D43F0080313652268A2
:100B4800136D23F0040313652268136D29690B43A1
:100B58001365002015E00068FFF7F2FD2268136DA9
:100B680043F4006313652268136D23F480631365EF
:100B78002268136D296943EA01231365002000E008
:100B88000120002384F83C3038BD0220FCE710B473
:100B9800846824F47F4C42EA03220A4342EA0C02A6
:100BA80082605DF8044B704790F83C30012B00F0F0
:100BB8009B8010B50446012380F83C30022380F85E
:100BC8003D3002689068494B034093600B68702B76
:100BD80061D031D8502B78D00CD9602B2AD1CA6873
:100BE80049682068FFF7F9FD60212068FFF709FED2
:100BF800002038E0402B0AD1CA6849682068FFF70E
:100C0800D9FD40212068FFF7FCFD00202BE067D8C4
:100C1800202B07D003D9302B04D0012023E00BB1BF
:100C2800102B05D119462068FFF7EBFD00201AE0CC
:100C3800012018E0012016E0B3F5005F38D00ED986
:100C48002B4A9342EED015D92A4A9342EAD0103261
:100C58009342E7D0203A9342E4D0012003E0B3F571
:100C6800805F3FD10020012384F83D30002384F8C1
:100C78003C3010BD203A9342D4D004D91E4A934246
:100C8800D0D00120EFE7B3F5801FCBD0B3F1101F10
:100C9800C8D00120E7E7CB684A6889682068FFF771
:100CA80076FF2268936843F0770393600020DAE7C1
:100CB800CB684A6889682068FFF769FF22689368EB
:100CC80043F4804393600020CDE7CA6849682068F0
:100CD800FFF770FD50212068FFF793FD0020C2E761
:100CE8000120C0E70120BEE7022070478800CEFF40
:100CF80040001000600010003000100001F01F01DB
:100D08004FF0010C0CFA01FC036A23EA0C0303629E
:100D1800036A8A40134303627047000010B5044613
:100D280010293DD8DFE801F0093C3C3C203C3C3C24
:100D3800273C3C3C2E3C3C3C350090F83E30DBB236
:100D4800013B18BF0123002B40F09B80102900F2C3
:100D58008680DFE801F02C84848474848484788419
:100D680084847C848484800090F83F30DBB2013B2B
:100D780018BF0123E7E790F84030DBB2013B18BF0A
:100D88000123E0E790F84130DBB2013B18BF0123B3
:100D9800D9E790F84230DBB2013B18BF0123D2E714
:100DA80090F84330DBB2013B18BF0123CBE70223A5
:100DB80084F83E3001222068FFF7A0FF2368344AF8
:100DC800934213D002F5006293420FD002F54062BD
:100DD80093420BD002F58062934207D002F58062FD
:100DE800934203D002F50062934203D15A6C42F455
:100DF80000425A642368264A934234D0B3F1804FA4
:100E080031D0A2F5943293422DD002F580629342FC
:100E180029D002F58062934225D002F5943293429C
:100E280021D002F5406293421DD002F580529342D0
:100E380019D01A6842F001021A60002022E0022349
:100E480084F83F30B6E7022384F84030B2E7022343
:100E580084F84130AEE7022384F84230AAE702233F
:100E680084F84330A6E799680A4A0A40062A0AD055
:100E7800B2F5803F09D01A6842F001021A600020DA
:100E880000E0012010BD0020FCE70020FAE700BFC9
:100E9800002C01400700010090F83C20012A4CD0AA
:100EA80030B40346012280F83C20022280F83D201D
:100EB800006842688468224DA84207D005F500659D
:100EC800A84203D005F5E055A84203D122F47002E8
:100ED8004D682A4322F0007222F070020D682A43FE
:100EE80042601A68164882421AD0B2F1804F17D071
:100EF800A0F59430824213D000F5806082420FD072
:100F080000F5806082420BD000F59430824207D011
:100F180000F54060824203D000F58050824204D13F
:100F280024F08004896821439160012283F83D20E0
:100F3800002083F83C0030BC70470220704700BF97
:100F4800002C014090F83C30012B60D010B40246D0
:100F5800012380F83C30CB6823F44073886803434E
:100F680023F480634868034323F400630868034359
:100F780023F480530869034323F400534869034367
:100F880023F48043086B034323F47023886943EAFE
:100F9800004310681F4CA04207D004F50064A0422B
:100FA80003D004F5E054A04203D123F08053CC6968
:100FB8002343184CA04207D004F50064A04203D094
:100FC80004F5E054A0421BD123F470038C6A43EA71
:100FD800045323F080730C6A234323F000734C6A94
:100FE80023430C4CA04207D004F50064A04203D070
:100FF80004F5E054A04203D123F00053C96A0B431F
:101008004364002082F83C005DF8044B70470220DE
:10101800704700BF002C0140002836D13E4B1B68AA
:1010280003F4C063B3F5806F08D03B4AD2F8803030
:1010380023F48073C2F8803000207047364AD2F813
:10104800803023F48073C2F88030136823F4C063BF
:1010580043F400731360314B1B68322202FB03F325
:101068002F4AA2FB03239B0C013300E0013B2A4AD1
:10107800526912F4806F01D0002BF7D1264B5B69BF
:1010880013F4806F44D100207047B0F5007F08D07A
:10109800214A136823F4C06343F48063136000207B
:1010A80070471D4B1B6803F4C063B3F5806F08D00D
:1010B800194AD2F8803043F48073C2F88030002097
:1010C8007047154AD2F8803043F48073C2F88030F4
:1010D800136823F4C06343F4007313600F4B1B6859
:1010E800322202FB03F30E4AA2FB03239B0C0133BB
:1010F80000E0013B084A526912F4806F01D0002BCE
:10110800F7D1054B5B6913F4806F03D1002070475A
:10111800032070470320704700700040080000203B
:1011280083DE1B43024A936843F48043936070470D
:1011380000700040104B1B680BB90120704710B5B8
:1011480004464FF47A70B0FBF3F30C4A1068B0FB16
:10115800F3F000F073FD68B90F2C01D901200AE003
:10116800002221464FF0FF3000F058FD044B1C6070
:10117800002000E0012010BD000000200800002031
:101188000400002010B5032000F036FD0F20FFF703
:10119800D1FF10B10124204610BD0446FFF74CF9D9
:1011A800F9E70000034A1368034909680B44136010
:1011B800704700BF7400002000000020014B186831
:1011C800704700BF7400002038B50446FFF7F6FFEB
:1011D8000546B4F1FF3F02D0044B1B681C44FFF7DF
:1011E800EDFF401BA042FAD338BD00BF000000202D
:1011F800124BDA6802F00302DB68C3F3031301330E
:10120800032A11D00E48B0FBF3F00C4BDB68C3F394
:10121800062303FB00F0094BDB68C3F3416301338A
:101228005B00B0FBF3F070470648B0FBF3F0034BEC
:10123800DB68C3F3062303FB00F0ECE70010024071
:101248000024F40000366E01002800F0548270B5C6
:1012580082B00446036813F0010F37D0A44A93689C
:1012680003F00C03D26802F003020C2B23D0082BE6
:1012780023D06368B3F5803F4ED0B3F5A02F51D08B
:101288009B4B1A6822F480321A601A6822F4802272
:101298001A606368002B52D0FFF790FF0546944B05
:1012A8001B6813F4003F11D1FFF788FF401B642827
:1012B800F5D9032028E2032AD9D18D4B1B6813F4F2
:1012C800003F03D06368002B00F01782236813F0F7
:1012D800020F5DD0864A936803F00C03D26802F0CF
:1012E80003020C2B3AD0042B3AD0E368002B75D0BC
:1012F8007F4A136843F480731360FFF75FFF054666
:101308007B4B1B6813F4806F5FD1FFF757FF401BBF
:101318000228F5D90320F7E1754A136843F48033AE
:101328001360B6E703F18043A3F53C331A6842F42F
:1013380080221A601A6842F480321A60A9E7FFF71F
:101348003DFF05466A4B1B6813F4003FBED0FFF70C
:1013580035FF401B6428F5D90320D5E1022AC2D104
:10136800634B1B6813F4806F03D0E368002B00F015
:10137800C6815F4A536823F0FE43216943EA01634B
:1013880053605C4B1868FFF7D5FE002840F0B98120
:10139800236813F0080F4CD063699BB3544AD2F802
:1013A800943043F00103C2F89430FFF707FF054675
:1013B8004F4BD3F8943013F0020F3AD1FFF7FEFEEB
:1013C800401B0228F4D903209EE1494A536823F0C0
:1013D800FE43216943EA01635360D9E7444A13682D
:1013E80023F480731360FFF7E9FE0546404B1B6842
:1013F80013F4806FCCD0FFF7E1FE401B0228F5D92B
:10140800032081E13A4AD2F8943023F00103C2F86C
:101418009430FFF7D3FE0546354BD3F8943013F0DC
:10142800020F06D0FFF7CAFE401B0228F4D903209A
:101438006AE1236813F0040F00F081802C4B9B6D48
:1014480013F0805F36D12A4B9A6D42F080529A652C
:101458009B6D03F080530193019B0125264B1B686C
:1014680013F4807F28D0A368012B39D0052B45D0F1
:101478001F4BD3F8902022F00102C3F89020D3F834
:10148800902022F00402C3F89020A368002B43D0D8
:10149800FFF794FE0646164BD3F8903013F0020F70
:1014A8004CD1FFF78BFE801B41F288339842F2D96A
:1014B800032029E10025D1E70F4A136843F480731C
:1014C8001360FFF77BFE06460B4B1B6813F4807F07
:1014D800C9D1FFF773FE801B0228F5D9032013E159
:1014E800034AD2F8903043F00103C2F89030CCE7B9
:1014F8000010024004000020007000408A4BD3F81E
:10150800902042F00402C3F89020D3F8902042F0D3
:101518000102C3F89020B8E7FFF750FE0646824B59
:10152800D3F8903013F0020F08D0FFF747FE801B66
:1015380041F288339842F2D90320E5E0E5B92368FF
:1015480013F0200F35D0A369E3B1774AD2F8983069
:1015580043F00103C2F89830FFF730FE0546724B9E
:10156800D3F8983013F0020F23D1FFF727FE401B62
:101578000228F4D90320C7E06B4A936D23F0805307
:101588009365DCE7684AD2F8983023F00103C2F883
:101598009830FFF713FE0546634BD3F8983013F0E5
:1015A800020F06D0FFF70AFE401B0228F4D90320D9
:1015B800AAE0E369002B00F0A6805B4A926802F07B
:1015C8000C020C2A69D0022B1DD0574B1A6822F046
:1015D80080721A60DA6822F00302DA60DA6822F0B0
:1015E800887222F48032DA60FFF7E8FD04464E4B39
:1015F8001B6813F0007F4ED0FFF7E0FD001B0228A8
:10160800F5D9032080E0484A136823F080731360FB
:10161800FFF7D4FD0546444B1B6813F0007F06D046
:10162800FFF7CCFD401B0228F5D903206CE03E4AA9
:10163800D3683E491940236A606A013843EA0013B7
:10164800A06A43EA0023206B4008013843EA40536C
:10165800606B4008013843EA4063E06A43EAC063CC
:101668001943D160136843F080731360D36843F063
:101678008073D360FFF7A2FD04462B4B1B6813F061
:10168800007F06D1FFF79AFD001B0228F5D9032039
:101698003AE0002038E0002036E0012B36D0224B1B
:1016A800DB6803F00301226A914231D103F0F002B2
:1016B800616A0139B2EB011F2CD103F4FE42A16A21
:1016C800B2EB012F28D103F07842E16AB2EBC16F87
:1016D80024D103F4C001226B5208013AB1EB425FF6
:1016E8001ED103F0C063626B5208013AB3EB426F3C
:1016F80018D1002008E001207047012004E00120F3
:1017080002E0012000E0002002B070BD0120FBE7EC
:101718000120F9E70120F7E70120F5E70120F3E7C9
:101728000120F1E70120EFE7001002400C809F0143
:101738001E4B9B6803F00C03042B33D01B4B9B6898
:1017480003F00C03082B2FD0184B9B6803F00C03F5
:101758000C2B01D000207047144BDA6802F003020A
:10176800DB68C3F303130133032A11D01048B0FB1D
:10177800F3F00E4BDB68C3F3062303FB00F00B4BBF
:10178800DB68C3F3416301335B00B0FBF3F07047E0
:101798000848B0FBF3F0054BDB68C3F3062303FBF3
:1017A80000F0ECE70248704702487047001002401A
:1017B8000024F40000366E01002800F0E680F8B539
:1017C8000C460546744B1B6803F00F038B420BD283
:1017D800714A136823F00F030B431360136803F077
:1017E8000F038B4240F0D3802E6816F001065FD0BD
:1017F8006B68032B2FD0022B4DD0684B1B6813F45A
:10180800806F00F0C680FFF793FF654B98424DD973
:10181800624A936823F0F00343F0800393608026C4
:101828005E4A936823F0030369680B439360FFF7EC
:10183800C5FC0746594B9B6803F00C036A68B3EB79
:10184800820F35D0FFF7BAFCC01B41F288339842AB
:10185800F0D9032078E0514B1B6813F0007F01D1C9
:10186800012071E0FFF7C4FC4D4B98421AD94B4B4D
:101878009B6813F0F00F05D02E6816F00206CFD043
:10188800AB688BB9454A936823F0F00343F08003B3
:1018980093608026C4E7414B1B6813F4003FB2D124
:1018A800012051E00026BBE70026B9E70026B7E78C
:1018B8002B6813F0020F48D013F0040F04D0374AF6
:1018C800936843F4E06393602B6813F0080F06D025
:1018D800324A936823F47C5343F4E06393602F4ABD
:1018E800936823F0F003A9680B4393602A4B1B68A5
:1018F80003F00F03A34230D82B6813F0040F06D06F
:10190800264A936823F4E063E9680B4393602B68E5
:1019180013F0080F07D0214A936823F4605329690C
:1019280043EAC1039360FFF703FF1C4B9B68C3F3B3
:1019380003131C4AD35C03F01F03D8401A4B1860EA
:101948001A4B1868FFF7F6FBF8BD802ECED1134A64
:10195800936823F0F0039360C8E70F4A136823F0F5
:101968000F0323431360FFF729FC06460A4B1B6845
:1019780003F00F03A342BFD0FFF720FC801B41F206
:1019880088339842F2D90320DEE70120704701200E
:10199800DAE70120D8E700BF00200240001002402B
:1019A80000B4C404441D00080800002004000020FE
:1019B800F0B583B0002362E085685E000324B4407C
:1019C80025EA0405CC68B4402C438460456825EAC0
:1019D8000C054C68C4F300149C402C4344605FE041
:1019E800DD08083550F8254003F0070C4FEA8C0C49
:1019F8004FF00F0E0EFA0CFE24EA0E0E0C6904FAD4
:101A08000CF444EA0E0440F8254060E0052400E0A8
:101A1800002404FA0EF42C430CF1020C554D45F841
:101A28002C40554CA568D44325EA02064F6817F4A4
:101A3800801F01D042EA05064F4DAE60ED6804EA0A
:101A480005064F6817F4001F01D042EA05064A4D03
:101A5800EE606D6804EA05064F6817F4003F01D090
:101A680042EA0506444D6E602D682C404E6816F417
:101A7800803F01D042EA05043F4A146001330A68F6
:101A880032FA03F474D04FF0010C0CFA03FC1CEA90
:101A98000202F3D04C6804F00304013C012C8BD9FA
:101AA8004C6804F00304032C0CD0C4685D004FF0AC
:101AB800030C0CFA05FC24EA0C0C8C68AC4044EAD4
:101AC8000C04C4604C6804F00304022C88D0046839
:101AD8004FEA430E4FF0030C0CFA0EFC24EA0C0CF0
:101AE8004C6804F0030404FA0EF444EA0C0404609D
:101AF8004C6814F4403FC1D0204C256E45F00105D8
:101B08002566246E04F001040194019C4FEA930CAD
:101B18000CF10205174C54F8255003F0030E4FEA58
:101B28008E0E0F2404FA0EF425EA0405B0F1904F46
:101B38003FF46EAF124CA04212D004F58064A0426C
:101B480010D004F58064A0420ED004F58064A04251
:101B58000CD004F58064A0423FF458AF062458E73F
:101B6800012456E7022454E7032452E7042450E7EB
:101B780003B0F0BD00000140000401400010024025
:101B8800000400480AB18161704781627047000013
:101B9800002808DB0901C9B200F1604000F5614086
:101BA80080F80013704700F00F000901C9B2014B1B
:101BB8001954704714ED00E000B500F00700C0F1BB
:101BC800070CBCF1040F28BF4FF0040C031D062BB3
:101BD8000FD9C31E4FF0FF3E0EFA0CF021EA0001A8
:101BE80099400EFA03FE22EA0E0241EA02005DF86D
:101BF80004FB0023EEE70000074AD36823F4E06300
:101C08001B041B0C000200F4E060034343F0BF63B5
:101C180043F40033D360704700ED00E010B504468C
:101C2800054BD868C0F30220FFF7C6FF01462046DF
:101C3800FFF7AEFF10BD00BF00ED00E00138B0F1C6
:101C4800807F0BD24FF0E0235861054AF02182F8DB
:101C580023100020986107221A61704701207047FD
:101C680000ED00E0034AD2F8883043F47003C2F86C
:101C78008830704700ED00E00D4885460D480E4954
:101C88000E4A002302E0D458C4500433C4188C42CE
:101C9800F9D30B4A0B4C002301E013600432A24233
:101CA800FBD3FFF7DFFF00F019F8FEF79DFBFEE717
:101CB80000000220000000200C0000205C1D00082D
:101CC8000C00002078000020FEE7024403469342FF
:101CD80000D1704703F8011BF9E7000070B50D4DFE
:101CE8000D4C641BA4100026A64209D10B4D0C4CC8
:101CF80000F018F8641BA4100026A64205D170BD98
:101D080055F8043B98470136EEE755F8043B9847E9
:101D18000136F2E7541D0008541D0008541D000840
:101D2800581D0008F8B500BFF8BC08BC9E467047AF
:0C1D3800F8B500BFF8BC08BC9E46704720
:101D44000000000000000000010203040607080967
:041D5400FD01000885
:041D5800D9010008A5
:0C1D5C0001000000100000000024F40052
:0400000508001C8152
:00000001FF
